:0200000480007A
:100000006F00000B1300000013000000130000003D
:100010001300000013000000130000001300000094
:10002000232E11FE232C51FE232A61FE232871FE6C
:100030002326A1FE2324B1FE2322C1FE2320D1FECC
:10004000232EE1FC232CF1FC232A01FD232811FDA2
:100050002326C1FD2324D1FD2322E1FD2320F1FD30
:10006000130101FCEF0080458320C103832281033B
:1000700003234103832301030325C1028325810256
:1000800003264102832601020327C1018327810140
:100090000328410183280101032EC100832E810022
:1000A000032F4100832F010013010104730020304E
:1000B00097110000938181CB138181A01705000067
:1000C0001305C54A970500009385454A6308B500A6
:1000D00023200500130545006FF05FFF17050000A2
:1000E000130585481301C1FF970500009385C54797
:1000F000630EB50083260500130545002320A100EB
:10010000E7800600032501006FF01FFE1301410088
:10011000371500001305058873104530372500009A
:100120001305858073100530EF0040246F00000038
:10013000130101FE232E8100130401022326A4FED5
:100140008327C4FE23A007008327C4FE23A407003F
:10015000130000000324C1011301010267800000A5
:10016000130101FE232E8100130401022326A4FEA5
:10017000130000000324C101130101026780000085
:10018000130101FE232E8100130401022326A4FE85
:100190008327C4FE23A207008327C4FE1307F0FFB2
:1001A00023A0E700130000000324C1011301010292
:1001B00067800000130101FE232E81001304010259
:1001C0002326A4FE8327C4FE83A7470093D70701F5
:1001D00093F7F70F138507000324C10113010102F0
:1001E00067800000130101FE232E81001304010229
:1001F0002326A4FE8327C4FE83A7470093D7870145
:10020000138507000324C101130101026780000068
:10021000130101FE232E1100232C8100130401027F
:100220002326A4FE2324B4FE130000000325C4FEED
:10023000EFF05FF893070500E38A07FE8327C4FE0B
:10024000032784FE23A0E700130000008320C101E0
:10025000032481011301010267800000130101FEE4
:10026000232E8100130401022326A4FE2324B4FEBE
:10027000832784FE03A7C7008327C4FE23A4E700C7
:10028000832784FE83A707001387F7FF832784FE55
:1002900083A74700939787003367F700832784FE7F
:1002A00083A78700939707013367F7008327C4FE6E
:1002B00023A6E700130000000324C101130101027B
:1002C00067800000130101FE232E1100232C810002
:1002D0001304010293070500A307F4FE8347F4FE0D
:1002E00093850700370501F0EFF09FF2130000003F
:1002F0008320C101032481011301010267800000F2
:10030000130101FD2326110223248102130401039A
:10031000232EA4FC232604FE6F0080020327C4FDC5
:100320008327C4FEB307F70083C7070013850700C0
:10033000EFF05FF98327C4FE938717002326F4FEAE
:100340000327C4FD8327C4FEB307F70083C7070054
:10035000E39607FC13000000130000008320C10295
:10036000032481021301010367800000130101FDD2
:100370002326110223248102130401039307100092
:100380002322F4FE930720002320F4FE930730007D
:10039000232EF4FC232604FEB70702F01385070181
:1003A000EFF01FDE370502F0EFF09FDBB70702F03A
:1003B00013850704EFF0DFD7B70702F037370000E7
:1003C0001307F7ED23A0E700B70702F093870704B0
:1003D0001307703E23A2E700B70702F093870704D4
:1003E000370701001307270023A0E700B70702F033
:1003F000938707011307F00023A0E700B70702F077
:10040000938707011307100023A2E700B70700F046
:100410001307F00F23A4E700B70700F023A207009B
:10042000B70701F01307200023A2E700B7070080F9
:100430001385C753EFF0DFECB7070080138507552E
:10044000EFF01FEC832744FE0327C4FEB307F70039
:100450002326F4FE032704FE8327C4FDB307F70019
:100460000327C4FEB307F7002326F4FE232404FE6B
:100470006F000001832784FE938717002324F4FE76
:10048000032784FEB7C700009387F734E3F4E7FE41
:10049000B70700F083A7470093F607FCB70700F003
:1004A00083A747009387170013F7F703B70700F0F8
:1004B00033E7E60023A2E7006FF0DFF8130101FF46
:1004C0002326810013040101B70702F09387070177
:1004D00083A7070093F7170063800704B70700F0AE
:1004E00003A74700B70700F01347070823A2E70058
:1004F000B70702F0938707011307100023A0E70056
:100500006F008001B70701F003A70700B70701F0EC
:100510001377F70F23A0E700B70701F083A7470081
:1005200093F70720E39007FE13000000130000007C
:0C0530000324C1001301010167800000DA
:10053C002323204D75726178536F432023230D0ABA
:10054C000000000048656C6C6F2C206943455375A6
:07055C00676172210D0A0026
:040564000000000093
:040000058000000077
:00000001FF
